:020000040800F2
:10000000000402249D020008A5020008A7020008BF
:10001000A9020008AB020008AD02000800000000C1
:10002000000000000000000000000000AF02000817
:10003000B102000800000000B3020008B502000889
:10004000B7020008B7020008B7020008B7020008AC
:10005000B7020008B7020008B7020008B70200089C
:10006000B7020008B7020008B7020008B70200088C
:10007000B7020008B7020008B7020008B70200087C
:10008000B7020008B7020008B7020008B70200086C
:10009000B70200080000000000000000B7020008DE
:1000A000B7020008B7020008B7020008B70200084C
:1000B000B7020008B7020008B7020008B70200083C
:1000C000B7020008B7020008B7020008B70200082C
:1000D000B7020008B7020008B7020008B70200081C
:1000E000B7020008B7020008B7020008B70200080C
:1000F000B7020008B7020008B7020008B7020008FC
:10010000B7020008B7020008B7020008B7020008EB
:10011000B7020008B7020008B7020008B7020008DB
:10012000B7020008B7020008B7020008B7020008CB
:10013000B7020008B7020008B7020008B7020008BB
:10014000B70200080000000000000000B70200082D
:10015000B7020008B7020008B7020008B70200089B
:10016000B7020008B7020008B7020008B70200088B
:10017000B7020008B7020008B7020008B70200087B
:10018000B7020008B7020008B7020008B70200086B
:10019000B7020008B7020008B7020008B70200085B
:1001A000B7020008B7020008B7020008B70200084B
:1001B000B7020008B7020008B7020008B70200083B
:1001C000B7020008B7020008B7020008B70200082B
:1001D000B7020008B7020008B7020008B70200081B
:1001E000B7020008B7020008B7020008B70200080B
:1001F000B7020008B7020008B7020008B7020008FB
:10020000B7020008B7020008B7020008B7020008EA
:10021000B7020008B7020008B7020008B7020008DA
:10022000B7020008B7020008B7020008B7020008CA
:10023000B7020008B7020008B7020008B7020008BA
:10024000B7020008B7020008B7020008B7020008AA
:10025000B7020008B7020008B7020008B70200089A
:10026000B7020008B7020008B7020008B70200088A
:10027000B7020008B7020008B7020008B70200087A
:10028000B7020008B7020008DFF80CD000F0B8FA97
:1002900000480047D12F0008000402240648804788
:1002A00006480047FEE7FEE7FEE7FEE7FEE7FEE75B
:1002B000FEE7FEE7FEE7FEE7711E00088902000880
:1002C000D2B201E000F8012B491EFBD27047002298
:1002D000F6E710B513460A4604461946FFF7F0FF45
:1002E000204610BD2DE9FE4F804681EA0300C00F75
:1002F0000C46009021F0004123F00045B8EB0200CD
:10030000A94105D24046214690461C460B4602466E
:1003100023F00040104347D0270DC7F30A00C3F372
:100320000A510290401A019040286BDAC3F313007F
:1003300040F4801B0098924620B10023D2EB030AC0
:1003400063EB0B0B01985946C0F14002504600F098
:1003500022F906460D4650465946019A00F03AF9F0
:1003600010EB08006141002487EA115284EAE77328
:100370001A4340D0009A62B3019A012A4FEA075209
:1003800015DC001B61EB02014FF0004202EA07524C
:10039000CDE90042001C41F5801132462B4600F0A9
:1003A00071F903B0BDE8F08F40462146F9E7001B24
:1003B00061EB0201001C41F5801300185B4120181D
:1003C000A2F5001747EB030140EAD570B6196D415D
:1003D00011E06D084FEA360645EAC0754FEA07524C
:1003E000001B61EB0201001C41F5801149084FEA36
:1003F00030000019514132462B4603B0BDE8F04FA2
:1004000000F031B90098012240000023D0EB020235
:1004100063EBE073009821464FEAE074B8EB00000C
:1004200061EB0401E9E783F000435BE781F0004101
:1004300058E72DE9FE4F81EA030404F0004421F05F
:10044000004100944FF0000B23F0004350EA0104F8
:100450005ED052EA03045BD0C3F30A54C1F30A55D9
:100460002C44A4F2F3340194A0FB0254C1F3130111
:1004700041F48011C3F3130343F4801301FB0244DE
:1004800000FB034E840A970A44EA815447EA8357E3
:10049000A4FB076802958D0A05FB07854FEA932C9C
:1004A00004FB0C542705029D4FEA065847EA16370D
:1004B000B5EB08056EEB070C870E920E47EA811725
:1004C00042EA8312A7FB0201B6EB0B0164EB0004C6
:1004D0002B0D43EA0C335E1844EB1C50DA465146B0
:1004E000E7FB0201C5F313044FEA0B3343EA14534D
:1004F0004FEA0432019C43EA0603A4F10C0402947F
:10050000009CCDE900B400F0BDF803B0BDE8F08F69
:1005100000200146F9E70EB5C10F80EAE0700844FB
:10052000CA07002140F233438DE80E000A460B460D
:1005300000F0A8F803B000BD00F0004230F0004029
:100540000AD0C10D01F56071C0F3160042EA0151F5
:10055000C20840071143704700200146704701F070
:10056000004330B421F0004150EA010206D00A0DE8
:10057000A2F56072C1F31301002A02DC30BC002036
:100580007047440F44EAC104C100E01830BC00EBDE
:10059000C25000F031B8202A04DB203A00FA02F100
:1005A000002070479140C2F1200320FA03F3194361
:1005B00090407047202A04DB203A21FA02F0002103
:1005C000704721FA02F3D040C2F120029140084363
:1005D00019467047202A06DBCB17203A41FA02F071
:1005E00043EAE07306E041FA02F3D040C2F1200290
:1005F00091400843194670470029A8BF7047401C26
:10060000490008BF20F00100704710B4B0FA80FC28
:1006100000FA0CF050EA010404BF10BC704749B165
:10062000CCF1200421FA04F411FA0CF118BF0121D5
:1006300021430843A3EB0C01CB1D4FEA00614FEAB5
:10064000102042BF002010BC704700EBC350104484
:100650000029A4BF10BC7047401C490008BF20F00F
:10066000010010BC704710B5141E73F1000408DAC5
:10067000401C41F1000192185B411A4301D120F066
:10068000010010BD2DE9F04D92469B4611B1B1FA23
:1006900081F202E0B0FA80F220329046FFF77BFF51
:1006A00004460F4640EA0A0041EA0B0153465A4607
:1006B000084313D0114653EA010019D0C8F1400293
:1006C0005046FFF777FF05460E46504659464246CC
:1006D000FFF761FF084305D0012004E020463946BA
:1006E000BDE8F08D0020054346EAE0762C43374311
:1006F0000A986305E40AA0EB08000022FD0A44EA18
:1007000047540A3002D500200146E9E701051019D7
:100710006941DDE9084500196941BDE8F04DA2E7EE
:100720002DE9F04D81EA030404F0004B21F000456F
:1007300014464FF0000A23F0004150EA050220D091
:1007400054EA01021DD0C5F30A570246C5F313034C
:10075000C1F31300C1F30A5640F4801543F480132B
:10076000A7EB0608101BD64608F2FD3873EB050010
:1007700002D308F1010801E092185B41B8F1000FC3
:1007800003DA00200146BDE8F08D00204FF480110F
:10079000064684460EE0171B73EB050705D3121BB4
:1007A00063EB050306434CEA010C49084FEA3000AD
:1007B00092185B4150EA0107EDD152EA030012D0D2
:1007C00082EA040083EA0501084305D0101BAB410F
:1007D00006D20122002306E000224FF0004302E08F
:1007E0006FF0010253101AEB06004CEB085110EBAE
:1007F0000A0041EB0B01BDE8F04DFFF734BF0000EC
:10080000064C074D06E0E06840F0010394E807005D
:1008100098471034AC42F6D3FFF73AFDCC360008C7
:10082000FC36000830B5041E71F1000404DB4FF003
:100830000044404264EB0101141E73F1000405DB27
:100840001C464FF00043524263EB04038B4208BF47
:10085000824230BD70B58D1810F8014B14F00302C0
:1008600001D110F8012B231106D110F8013B03E050
:1008700010F8016B01F8016B521EF9D1ABB110F801
:10088000012B04F00C048A1A0C2C03D0A2EB841266
:100890009B1C08E010F8014BA2EB0422F8E712F8C9
:1008A000014B01F8014B5B1EF9D5A942D4D30020BE
:1008B00070BD0000F0B50246002500240020002392
:1008C00000E1012606FA03F50E6806EA0504AC42CB
:1008D00073D14E68022E02D04E68122E13D1DF085B
:1008E00002F1200656F827005E07F70E0F26BE40DD
:1008F000B0435F07FF0E0E69BE403043DF0802F1D0
:10090000200646F8270010685F000326BE40B0436B
:100910000E7906F003065F00BE40304310604E685B
:10092000012E08D04E68022E05D04E68112E02D03E
:100930004E68122E13D190685F000326BE40B0436C
:100940005F00CE68BE4030439060506801269E40F4
:10095000B0430E79C6F300169E4030435060D06815
:100960005F000326BE40B0435F008E68BE40304348
:10097000D0604E6806F08056B6F1805FA8D1534E25
:10098000366846F00206514F3E60514E9F0856F8B9
:1009900027009E07370F0F26BE40B0434D4EB24290
:1009A00001D100262EE04C4EB24201D1012629E0B1
:1009B0004A4EB24202D1022624E082E0484EB242C0
:1009C00001D103261EE0474EB24201D1042619E0B0
:1009D000454EB24201D1052614E0444EB24201D147
:1009E00006260FE0424EB24201D107260AE0414EF0
:1009F000B24201D1082605E03F4EB24201D109269C
:100A000000E00A269F073F0FBE403043304E9F084C
:100A100046F827004E6806F08076DEB9374E30681B
:100A2000A0434E6806F48036B6F5803F00D12043DF
:100A3000324E30604FF0B046D6F88400A0434E6886
:100A400006F40036B6F5003F00D120432B4E361D8C
:100A500030601CE0294E40363068A0434E6806F4F2
:100A60008036B6F5803F00D12043244E40363060BA
:100A70004FF0B046D6F8C400A0434E6806F40036E6
:100A8000B6F5003F00D120431C4E443630604FF095
:100A9000B0463068A0434E6806F48016B6F5801F55
:100AA00000D120434FF0B04630607068A0434E68DC
:100AB00006F40016B6F5001F00D120434FF0B046F3
:100AC00070605B1C102BFFF4FCAEF0BDF4440258C8
:100AD0000804005800000258000402580008025898
:100AE000000C025800100258001402580018025856
:100AF000001C0258002002580024025880000058B0
:100B000001480068704700002005002410B503204C
:100B100000F058F80F2000F004F800F014F800205E
:100B200010BD70B5044600F0EBFC4FF47A71B0FBD9
:100B3000F1F5284601F098F800222146501E00F0F9
:100B400003F8002070BD70472DE9F05F80460D4628
:100B50001646002701F04CF9074639462A46334627
:100B600001F00700C0F1070ABAF1040F02D94FF0F3
:100B7000040A01E0C0F1070AD14600F1040ABAF103
:100B8000070F02D24FF0000A01E0A0F1030AD44699
:100B90004FF0010A0AFA09FAAAF1010A0AEA020A5E
:100BA0000AFA0CFA4FF0010B0BFA0CFBABF1010B3C
:100BB0000BEA030B4AEA0B042146404601F020F9F8
:100BC000BDE8F09F00BF00F00702064B19684FF622
:100BD000FF031940044B0B4343EA0221014B196008
:100BE00000BF70470CED00E00000FA0500B500F012
:100BF00069FB0749096801F07001102292FAA2F21C
:100C0000B2FA82F2D140034A515CC84000BD0000F4
:100C1000204402582405002470B50022002301213D
:100C2000DFED620AB0EE600A614C246804F0030351
:100C30005F4C2468C4F305315D4C241D246804F026
:100C400010045B4D14352D684FF6F87635406C4333
:100C500000EE904AF8EE600AB0EE600A23B1012B74
:100C600023D0022B63D141E0524CB4FBF1F400EEEF
:100C7000904AB8EE601ADFED500AC0EE201A4C4CD4
:100C800010342468C4F3080400EE904AF8EE600AB9
:100C900071EEA00AF7EE001A70EEA10A61EE200ACA
:100CA000FCEEE00A10EE902A62E0444CB4FBF1F452
:100CB00000EE904AB8EE601ADFED3F0AC0EE201A4F
:100CC0003B4C10342468C4F3080400EE904AF8EE5C
:100CD000600A71EEA00AF7EE001A70EEA10A61EE4A
:100CE000200AFCEEE00A10EE902A41E0314CB4FB01
:100CF000F1F400EE904AB8EE601ADFED2F0AC0EE74
:100D0000201A2B4C10342468C4F3080400EE904AD7
:100D1000F8EE600A71EEA00AF7EE001A70EEA10A72
:100D200061EE200AFCEEE00A10EE902A20E0234C4F
:100D3000B4FBF1F400EE904AB8EE601ADFED1E0A43
:100D4000C0EE201A1A4C10342468C4F3080400EED4
:100D5000904AF8EE600A71EEA00AF7EE001A70EE03
:100D6000A10A61EE200AFCEEE00A10EE902A00BF14
:100D700000BF0F4C10342468C4F34624641CB2FB3B
:100D8000F4F404600A4C10342468C4F30644641C70
:100D9000B2FBF4F44460064C10342468C4F30664D7
:100DA000641CB2FBF4F4846070BD0000000000001D
:100DB0002844025800879303E0FFFF4800093D00E4
:100DC00070B5002200230121DFED620AB0EE600A57
:100DD000614C246804F003035F4C2468C4F305519C
:100DE0005D4C241D246804F480745B4D1C352D6813
:100DF0004FF6F87635406C4300EE904AF8EE600A04
:100E0000B0EE600A23B1012B23D0022B63D141E065
:100E1000524CB4FBF1F400EE904AB8EE601ADFEDEC
:100E2000500AC0EE201A4C4C18342468C4F308044D
:100E300000EE904AF8EE600A71EEA00AF7EE001A92
:100E400070EEA10A61EE200AFCEEE00A10EE902A94
:100E500062E0444CB4FBF1F400EE904AB8EE601A44
:100E6000DFED3F0AC0EE201A3B4C18342468C4F36F
:100E7000080400EE904AF8EE600A71EEA00AF7EE60
:100E8000001A70EEA10A61EE200AFCEEE00A10EEF4
:100E9000902A41E0314CB4FBF1F400EE904AB8EEF8
:100EA000601ADFED2F0AC0EE201A2B4C183424688C
:100EB000C4F3080400EE904AF8EE600A71EEA00A4E
:100EC000F7EE001A70EEA10A61EE200AFCEEE00ACD
:100ED00010EE902A20E0234CB4FBF1F400EE904A8F
:100EE000B8EE601ADFED1E0AC0EE201A1A4C183454
:100EF0002468C4F3080400EE904AF8EE600A71EE2C
:100F0000A00AF7EE001A70EEA10A61EE200AFCEECC
:100F1000E00A10EE902A00BF00BF0F4C183424687E
:100F2000C4F34624641CB2FBF4F404600A4C183485
:100F30002468C4F30644641CB2FBF4F44460064C19
:100F400018342468C4F30664641CB2FBF4F48460AF
:100F500070BD000000000000284402580087930381
:100F6000E0FFFF4800093D0070B504460E4600252D
:100F7000D248006800F00F00B04273D2CF4800683A
:100F800020F00F003043CD4908600846006800F0AB
:100F90000F00B04201D0012070BD207800F00200A7
:100FA000022807D1C648006820F00F00E168084316
:100FB000C3490860207800F00100002851D0C048E3
:100FC000006820F47060A1680843BD49086060684B
:100FD000022807D1BA4818380068C0F34040F8B971
:100FE0000120D9E76068032807D1B54818380068A0
:100FF000C0F34060A0B90120CEE76068012807D1A6
:10100000AF4818380068C0F3002048B90120C3E792
:10101000AB4818380068C0F3800008B90120BBE76E
:10102000A7480838006820F0030061680843A44915
:1010300008390860FFF764FD05466068022812D190
:1010400008E0FFF75DFD401B41F28831884201D97D
:101050000320A1E79A480838006800F0180010281B
:10106000EFD1EBE03BE06068032811D108E0FFF727
:1010700047FD401B41F28831884201D903208BE7AC
:101080008F480838006800F018001828EFD1D5E024
:101090006068012811D108E0FFF732FD401B41F2E2
:1010A0008831884201D9032076E7854808380068EE
:1010B00000F018000828EFD1C0E008E0FFF720FD9D
:1010C000401B41F28831884201D9032064E77C4803
:1010D0000838006800F018000028EFD1AEE0207852
:1010E00000F00200022807D17548006820F00F00C8
:1010F000E168084372490860207800F00100002888
:1011000051D06F48006820F47060A16808436C49B2
:1011100008606068022807D1694818380068C0F381
:101120004040F8B9012037E76068012807D16448DA
:1011300018380068C0F30020A0B901202CE76068CF
:10114000032807D15E4818380068C0F3406048B9EA
:10115000012021E75A4818380068C0F3800008B918
:10116000012019E756480838006820F0030061683C
:101170000843534908390860FFF7C2FC0546606818
:10118000022811D108E0FFF7BBFC401B41F2883177
:10119000884201D90320FFE649480838006800F07A
:1011A00018001028EFD13AE06068032811D108E058
:1011B000FFF7A6FC401B41F28831884201D9032089
:1011C000EAE63F480838006800F018001828EFD118
:1011D00025E06068012811D108E0FFF791FC401B71
:1011E00041F28831884201D30320D5E634480838DB
:1011F000006800F018000828EFD110E008E0FFF7C1
:101200007FFC401B41F28831884201D90320C3E6AC
:101210002B480838006800F018000028EFD1274854
:10122000006820F00F003043244908600846006839
:1012300000F00F00B04201D00120ADE6207800F0B0
:101240000400042807D11E48006820F070002169BE
:1012500008431B490860207800F00800082809D1DD
:101260001748001D006820F07000616908431449A8
:10127000091D0860207800F01000102809D11048DE
:10128000001D006820F4E060A16908430C49091DB5
:101290000860207800F02000202809D10848083094
:1012A000006820F07000E1690843054908310860D2
:1012B0000F20FFF736FC00206EE6000000200052F1
:1012C0001844025800B500F01BF90749096801F0FD
:1012D0000F01012292FAA2F2B2FA82F2D140034A3D
:1012E000515CC84000BD0000184402582405002489
:1012F00000B5FFF7E7FF0749096801F07001102208
:1013000092FAA2F2B2FA82F2D140034A515CC8408A
:1013100000BD00001C4402582405002400B5FFF75E
:10132000D1FF0749096801F4E0614FF4807292FA35
:10133000A2F2B2FA82F2D140024A515CC84000BD2A
:101340001C44025824050024F0B500220123002487
:101350000121DFED660AB0EE600A0020644D2D68C1
:1013600005F0180535B1082D06D0102D06D0182D22
:101370007DD105E05F48B7E05F48B5E05D48B3E088
:101380005B4D18352D6805F00304594D18352D684F
:10139000C5F30511564D1C352D6805F00105544E59
:1013A000243636684FF6F8773E40754300EE905A83
:1013B000F8EE600AB0EE600A24B1012C23D0022CB2
:1013C00065D141E04B4DB5FBF1F500EE905AB8EE1A
:1013D000601ADFED4A0AC0EE201A454D20352D680F
:1013E000C5F3080500EE905AF8EE600A71EEA00A07
:1013F000F7EE001A70EEA10A61EE200AFCEEE00A98
:1014000010EE902A64E03C4DB5FBF1F500EE905AE9
:10141000F8EE601ADFED390A80EE201A344D2035DF
:101420002D68C5F3080500EE905AF8EE600A71EEDB
:10143000200AB7EE001A70EE810A61EEA00AFCEEF7
:10144000E00A10EE902A43E02A4DB5FBF1F500EEDC
:10145000905AB8EE601ADFED290AC0EE201A244D2A
:1014600020352D68C5F3080500EE905A00E039E0FC
:10147000F8EE600A71EEA00AF7EE001A70EEA10A0B
:1014800061EE200AFCEEE00A10EE902A20E01A4DF0
:10149000B5FBF1F500EE905AB8EE601ADFED170AD1
:1014A000C0EE201A124D20352D68C5F3080500EE58
:1014B000905AF8EE600A71EEA00AF7EE001A70EE8C
:1014C000A10A61EE200AFCEEE00A10EE902A00BFAD
:1014D00000BF074D20352D68C5F346256B1CB2FBB8
:1014E000F3F001E0044800BF00BFF0BD00000000C1
:1014F000104402580087930300093D00E0FFFF48B5
:1015000000B5FFF721FF0949096801F470614FF444
:10151000807292FAA2F2B2FA82F2D140044A515C8D
:10152000C840044908600846006800BD18440258D5
:10153000240500240805002470B586B006460C4634
:101540001546FEB92048006840F001001E490860B9
:101550004FF480700190022002900320049000203C
:101560000390059001A91948FFF7A4F91648D0384F
:10157000006820F0FE7044EA050108431249D039A2
:1015800008601EE01048006840F004000E49086042
:101590004FF400700190022002900320049000207C
:1015A0000390059001A90A48FFF784F90648D0384E
:1015B000006820F07E4044EAC51108430249D03952
:1015C000086006B070BD0000E044025800000258F8
:1015D0000008025870B504460025207800F001008C
:1015E00000287DD0F848006800F0180010280CD0C2
:1015F000F548006800F01800182813D1F248183098
:10160000006800F0030002280CD1EF481038006891
:10161000C0F340400028E4D06068B0F5803F5FD060
:10162000012070BD00BFE8481038006820F4803009
:10163000E549103908600846006820F480200860F9
:1016400000BFFFF75DFA054608E0FFF759FA401BB7
:1016500041F28831884201D90320E2E7DA481038A4
:101660000068C0F340400028EFD100BFD6481038D2
:10167000006820F48030D449103908606068B0F503
:10168000803F0AD10846006820F4802008600846A0
:10169000006840F48030086019E06068B0F5A02F61
:1016A0000DD1C9481038006840F48020C64910396F
:1016B00008600846006840F48030086007E0C248CF
:1016C0001038006820F48020BF491039086000BF3E
:1016D0006068B0F5803F15D1FFF712FA054609E0C2
:1016E00024E0FFF70DFA401B41F28831884201D90E
:1016F000032096E7B44810380068C0F34040002843
:10170000EFD013E0FFF7FCF9054608E0FFF7F8F922
:10171000401B41F28831884201D9032081E7AA4861
:1017200010380068C0F340400028EFD1207800F066
:101730000200022875D1A448006800F0180058B1D2
:10174000A148006800F01800182822D19E481830DF
:10175000006800F00300E0B99B4810380068C0F34F
:10176000800020B1E068012801D0012059E79648A7
:101770000C38006820F47C304FF47C3292FAA2F2EC
:10178000B2FA82F22169914008438F490C3908600E
:1017900047E0E06858B38C481038006840F001001A
:1017A000894910390860FFF7ABF9054606E0FFF7F5
:1017B000A7F9401B642801D9032032E7824810387A
:1017C0000068C0F380000028F1D07F480C38006822
:1017D00020F47C304FF47C3292FAA2F2B2FA82F218
:1017E00021699140084378490C39086019E076482E
:1017F0001038006820F00100734910390860FFF7C5
:101800007FF9054606E0FFF77BF9401B642801D904
:10181000032006E76C4810380068C0F380000028F9
:10182000F1D1207800F01000102877D166480068C8
:1018300000F0180008280CD06348006800F0180079
:10184000182823D160481830006800F003000128F0
:101850001CD15D4810380068C0F3002020B1E06959
:10186000802801D00120DCE657480C38006820F0C1
:10187000F8404FF0F84292FAA2F2B2FA82F2216AEC
:101880009140084350490C39086047E0E06958B37B
:101890004D481038006840F080004B49103908600E
:1018A000FFF72EF9054606E0FFF72AF9401B6428EA
:1018B00001D90320B5E6444810380068C0F3002081
:1018C0000028F1D040480C38006820F0F8404FF074
:1018D000F84292FAA2F2B2FA82F2216A91400843E7
:1018E00039490C39086019E037481038006820F091
:1018F0008000354910390860FFF702F9054606E017
:10190000FFF7FEF8401B642801D9032089E62E4822
:1019100010380068C0F300200028F1D1207800F0D2
:101920000800082836D16069D0B1274864300068C3
:1019300040F00100244964310860FFF7E1F80546F2
:1019400006E0FFF7DDF8401B642801D9032068E6B4
:101950001D4864300068C0F340000028F1D019E051
:1019600019486430006820F00100174964310860AC
:10197000FFF7C6F8054606E0FFF7C2F8401B6428EB
:1019800001D903204DE6104864300068C0F34000E0
:101990000028F1D1207800F02000202834D1A0695F
:1019A000D8B109481038006840F480500649103911
:1019B0000860FFF7A5F8054608E0FFF7A1F8401B0F
:1019C000642803D903202CE610440258A448006878
:1019D000C0F340300028F0D016E0A148006820F4A1
:1019E00080509F490860FFF78BF8054606E0FFF737
:1019F00087F8401B642801D9032012E69848006844
:101A0000C0F340300028F2D1207800F00400042810
:101A100070D19348E030006840F480209049E03174
:101A200008609048006840F480708E490860FFF7B5
:101A300067F8054606E0FFF763F8401B642801D904
:101A40000320EEE58748006800F480700028F2D09B
:101A500083487030006820F00500814970310860CB
:101A6000FFF74EF8054608E0FFF74AF8401B41F241
:101A70008831884201D90320D3E579487030006865
:101A8000C0F340000028EFD175487030006820F0A6
:101A90000500A1680843724970310860A0680128F8
:101AA00014D1FFF72DF8054608E0FFF729F8401B91
:101AB00041F28831884201D90320B2E5684870308C
:101AC0000068C0F340000028EFD013E0FFF718F8DB
:101AD000054608E0FFF714F8401B41F288318842C0
:101AE00001D903209DE55E4870300068C0F34000D6
:101AF0000028EFD1606A00287DD059481030006876
:101B000000F01800182877D0606A022875D1544870
:101B1000006820F0807052490860FEF7F1FF05462A
:101B200006E0FEF7EDFF401B642801D9032078E5AD
:101B30004B480068C0F340600028F2D100BFD4E9F0
:101B40000A1041EA001046492831096840F2F33290
:101B500091430843424928310860206B401E616B65
:101B6000491E40EA4121208F401E41EA00413C20AD
:101B7000005D401E41EA006039493031086000BF15
:101B8000081D00684FF6F87188434FF6F87292FA14
:101B9000A2F2B2FA82F2A16C91400843304934318A
:101BA00008602F482C30006820F00C00216C08439E
:101BB0002B492C3108600846006820F00200616C57
:101BC000084327492C3108600846006840F48030FB
:101BD00008600846006840F4003008600846006865
:101BE00040F4802008600846006840F0010008606A
:101BF0001B48006802E031E02EE015E040F0807004
:101C000017490860FEF77CFF054606E0FEF778FFFF
:101C1000401B642801D9032003E511480068C0F384
:101C200040600028F2D019E00D48006820F0807074
:101C30000B490860FEF764FF054606E0FEF760FF0B
:101C4000401B642801D90320EBE405480068C0F379
:101C500040600028F2D101E00120E2E40020E0E44D
:101C6000004402580048025870B504462546681ED4
:101C7000B0F1807F01D301200FE0681E4FF0E0211A
:101C800048610F214FF0FF3000F0BAF800204FF00C
:101C9000E021886107200861002070BD01460868C6
:101CA000C06A00F00F00024A32F8100070470000CE
:101CB0003405002410B504460CB9012010BDA069FC
:101CC00000B100E000BF94F8790028B9002084F842
:101CD0007800204600F02AF8022084F87900206875
:101CE000006820F0010021680860204600F0A4F997
:101CF000012800D1E2E7606B10B1204600F0FEF849
:101D00002068406820F4904021684860206880681E
:101D100020F02A00216888602068006840F00100F7
:101D200021680860204600F05EF9C7E770472DE99A
:101D3000F04104460D461646984694F8790001286D
:101D400003D094F87900222850D105B116B90120AA
:101D5000BDE8F0810020E06794F87900222803D1E3
:101D6000322084F8790002E0122084F87900A4F887
:101D70006060A4F862601FE0B4F86200401EA4F83E
:101D80006200434600228021204600F01BFC08B17F
:101D90000320DDE7A068B0F5805F09D1206938B97C
:101DA0002F463888C0F3080021680885AD1C03E081
:101DB00015F8010B21680885B4F862000028DBDC07
:101DC000434600224021204600F0FCFB08B10320DE
:101DD000BEE794F87900322803D1222084F87900F4
:101DE00002E0012084F879000020B1E70220AFE78B
:101DF00002480068C0F30220704700000CED00E0CC
:101E000010B5002807DA0A07140E054A00F00F0380
:101E10001B1FD45403E00A07130E024A135410BDCB
:101E200018ED00E000E400E000B59BB00220009057
:101E3000012003900220099000210A9104210B91B6
:101E400010210C9108210D916846FFF7C3FB3F203C
:101E5000139003201490002015901690179018905E
:101E600019901A90042113A8FFF77EF81BB000BD4B
:101E70001F48006840F470001D4908601D48006854
:101E800040F001001B49086000201A491031086029
:101E9000184800681849084016490860002015498C
:101EA00018310860091D0860091D086011492831B2
:101EB0000860091D0860091D0860091D0860091DEA
:101EC0000860091D0860091D0860091D08600948AF
:101ED000006820F48020074908600020054960312F
:101EE00008604FF0006002498039086070470000C8
:101EF00088ED00E0004402587FEDF6EA90F83410D7
:101F000001F0010139B10168496821F40031826BA7
:101F100011430268516090F8341001F0020139B1A8
:101F20000168496821F48031C26B11430268516035
:101F300090F8341001F0040139B10168496821F4C6
:101F40008021026C11430268516090F8341001F056
:101F5000080139B10168496821F40041426C11431C
:101F60000268516090F8341001F0100139B1016835
:101F7000896821F48051826C11430268916090F865
:101F8000341001F0200139B10168896821F4005151
:101F9000C26C11430268916090F8341001F0400166
:101FA00099B10168496821F48011026D11430268FA
:101FB0005160016DB1F5801F07D10168496821F4B6
:101FC000C001426D11430268516090F8341001F075
:101FD000800139B10168496821F40021826D114303
:101FE00002685160704710B504460020E067206821
:101FF000006800F00800082809D16FF07E43002235
:102000008104204600F0DEFA08B1032010BD2068EC
:10201000006800F00400042809D16FF07E4300221C
:102020000105204600F0CEFA08B10320EEE70120BA
:1020300084F879000020E9E72DE9F04786B00446EE
:10204000002580260027A846A9462169A0680843E4
:1020500061690843E16940EA0105A06A0543206817
:102060000068F749084028432168086020684068F4
:1020700020F44050E168084321684860216AA06963
:1020800040EA0105D4E90B01084305432068806854
:10209000EC4908402843216888602068C06A20F025
:1020A0000F00616A08432168C86200BFE6492068E2
:1020B00088421ED1E548006800F03800182811D089
:1020C00005DC48B1082809D0102811D108E02028E3
:1020D0000AD030280CD109E0012609E0042607E0E7
:1020E000402605E0082603E0102601E0202600BF78
:1020F000E7E0D7492068884218D1D448006800F04A
:102100000700072811D2DFE800F00406080A0C10C7
:102110000E00002609E0042607E0402605E0082618
:1021200003E0102601E0202600BFCAE0C94920686C
:10213000884218D1C548006800F00700072811D26E
:10214000DFE800F00406080A0C100E00002609E083
:10215000042607E0402605E0082603E0102601E0FB
:10216000202600BFADE0BC492068884218D1B7489E
:10217000006800F00700072811D2DFE800F004062D
:10218000080A0C100E00002609E0042607E040268D
:1021900005E0082603E0102601E0202600BF90E0BD
:1021A000AE492068884218D1A848006800F00700AE
:1021B000072811D2DFE800F00406080A0C100E0010
:1021C000002609E0042607E0402605E0082603E093
:1021D000102601E0202600BF73E0A1492068884254
:1021E00018D19A48006800F03800072811D2DFE8BB
:1021F00000F00406080A0C100E00012609E004266F
:1022000007E0402605E0082603E0102601E020262E
:1022100000BF56E093492068884218D18B48006877
:1022200000F00700072811D2DFE800F00406080AD2
:102230000C100E00002609E0042607E0402605E009
:10224000082603E0102601E0202600BF39E0864979
:102250002068884218D17D48006800F007000728F0
:1022600011D2DFE800F00406080A0C100E00002668
:1022700009E0042607E0402605E0082603E01026D2
:1022800001E0202600BF1CE078492068884218D170
:102290006E48006800F00700072811D2DFE800F060
:1022A0000406080A0C100E00022609E0042607E0C6
:1022B000402605E0082603E0102601E0202600BFA6
:1022C00000BF00BF6949206888424ED10025102E0A
:1022D0001ED006DC022E0BD0042E0DD0082E1CD1F1
:1022E00014E0202E16D0402E0BD0802E15D115E0F4
:1022F000FEF77CFC054614E003A8FEF78DFC049D68
:102300000FE06846FEF75CFD019D0AE0584D08E0CD
:10231000584D06E04FF4004503E000BF4FF00109BF
:1023200000BF00BF002D0AD0606800EB4000A8424B
:1023300003D860680003A84202D24FF0010939E1D6
:1023400060680003A84203D14B482168C86031E1AE
:102350006068B5FBF0F04FEA002A2046FFF79EFCCC
:10236000BAFBF0F02168C86024E1E069B0F5004FE5
:1023700065D1102E57D007DC6EB1012E19D0042E76
:1023800025D0082E7ED142E0202E7DD0402E2ED0AA
:10239000802E77D186E0FEF7ABFF40006168B0FB8E
:1023A000F1FA2046FFF77AFCBAFBF0F01FFA80F84A
:1023B0007BE0FEF7B3FF40006168B0FBF1FA204616
:1023C000FFF76CFCBAFBF0F01FFA80F86DE003A891
:1023D000FEF722FC049840006168B0FBF1FA204649
:1023E000FFF75CFCBAFBF0F01FFA80F85DE068468E
:1023F000FEF7E6FC019840006168B0FBF1FA204668
:10240000FFF74CFCBAFBF0F01FFA80F84DE01B49D7
:102410006068B1FBF0FA2046FFF740FCBAFBF0F031
:102420001FFA80F841E016496068B1FBF0FA2046D7
:10243000FFF734FCBAFBF0F01FFA80F835E03FE01C
:10244000F369FFCFFFF4FF1100100140544402581C
:102450000044004000480040004C00400050004054
:102460000014014000780040007C0040000C00583F
:102470000087930300093D00FFFF0F00000E2707B0
:1024800000127A000DE0FFE74FF480316068B1FB85
:10249000F0FA2046FFF702FCBAFBF0F01FFA80F8D2
:1024A00003E000BF4FF0010900BF00BF4FF6F0701E
:1024B00008EA0007C8F3420007432068C76079E0D4
:1024C000102E58D007DC6EB1012E19D0042E25D065
:1024D000082E6AD142E0202E5AD0402E2ED0802ED7
:1024E00063D163E0FEF704FF6168B0FBF1FA2046B8
:1024F000FFF7D4FBBAFBF0F080B22168C86058E067
:10250000FEF70CFF6168B0FBF1FA2046FFF7C6FB4F
:10251000BAFBF0F080B22168C8604AE003A8FEF779
:102520007BFB04986168B0FBF1FA2046FFF7B6FB2D
:10253000BAFBF0F080B22168C8603AE06846FEF766
:102540003FFC01986168B0FBF1FA2046FFF7A6FB5B
:10255000BAFBF0F080B22168C8602AE017496068D1
:10256000B1FBF0FA2046FFF799FBBAFBF0F080B21E
:102570002168C8601DE012496068B1FBF0FA20468E
:10258000FFF78CFBBAFBF0F080B22168C86010E066
:102590004FF400416068B1FBF0FA2046FFF77EFB84
:1025A000BAFBF0F02168C86003E000BF4FF00109FA
:1025B00000BF00BF484606B0BDE8F0870087930320
:1025C00000093D002DE9F04104460E4617461D4620
:1025D000FEF796FA804677BB26E0681C20B32DB143
:1025E000FEF78EFAA0EB0800A8421DD9206800680B
:1025F00020F08000216808602068006820F020003A
:10260000216808602068006820F4807021680860F4
:102610002068806820F0010021688860012084F82B
:1026200079000320BDE8F0812068C0693040B042E5
:1026300002D1012001E003E000200028CDD030E0ED
:1026400025E0681C18B32DB1FEF75AFAA0EB08007C
:10265000A8421CD92068006820F08000216808602A
:102660002068006820F02000216808602068006869
:1026700020F48070216808602068806820F00100E4
:1026800021688860012084F879000320CAE7206867
:10269000C0693040B04201D1012000E00020002894
:1026A000CFD10020BEE7000010B50D480D490860ED
:1026B0004FF4E130486000210A488160C160016147
:1026C00081610C2141610021C161FFF7F3FA08B17A
:1026D00000BFFEE703480068808C0349086010BD16
:1026E00000100140502500240000002401B54FF6E1
:1026F000FF73012269460248FFF719FB08BD00007D
:1027000050250024014A024900F048BBDD2E000894
:10271000D02500240000000070B5D94B00242DED19
:10272000020B2DED108BDDE91010984205DA20F038
:1027300000429A4201D809D141B19DED100BBDEC88
:10274000108B02B0BDE8704000F0F6BAB0F5801F03
:1027500026DA11430BD0002813DA012000F018FB11
:10276000BDEC108B02B0BDE8704000F0F1BA022061
:1027700000F00EFB00F0C8FA51EC100B81F00041A4
:102780009EE06FF035049FEDC00B53EC102B9DEDD8
:10279000100B51EC100BFDF74CFECDE91001084673
:1027A00004EB2051C0F31304B948A1F2FF312044D7
:1027B00000F4801080F07F6282F04052224301EBEF
:1027C00020559FEDB50B119253EC102B9DED100B86
:1027D00051EC100BFDF727FE41EC180BA01CC0F3C9
:1027E00013009FEDAFDB9FEDB0EBB14E7E440328AD
:1027F0006CD296ED000B51EC180B53EC102BFEF73E
:1028000011F81DD1002D01BF96ED000BBDEC108B12
:1028100002B070BD2846FDF77EFE41EC180B53EC6C
:102820001D2BFDF706FE41EC190B53EC1E2B51EC52
:10283000180BFDF7FEFD53EC192BFDF753FD3FE0A0
:102840009FED9D0B51EC180B53EC102BFDF7F1FD98
:102850009FED9B1B53EC112BFDF7E8FD41EC190B91
:1028600053EC182B51EC180BFDF7E3FD53EC192B2F
:10287000FDF7DFFD41EC190B002D04BF53EC192BC4
:1028800051EC180B1AD02846FDF745FE41EC1A0B07
:1028900053EC1D2BFDF7CDFD53EC192BFDF7C6FDB9
:1028A00053EC182BFDF7BFFD41EC180B53EC1E2B1E
:1028B00051EC1A0BFDF7BDFD53EC182BFDF7B3FDE2
:1028C000BDEC108B02B041EC100B70BD9FED7E0B88
:1028D00051EC180B53EC102BFDF704FD41EC100BE1
:1028E00051EC180B53EC102BFDF71AFF41EC190BB0
:1028F0002846FDF710FE41EC1B0B53EC192B51EC55
:10290000190BFDF796FD41EC1A0B714853EC1A2B8D
:10291000261851EC1A0BFDF78CFD41EC1F0B6D488E
:10292000C4F1510404F5D724B0EE4F0AF0EE6F0A5B
:102930000321784400F06CF953EC1F2B51EC100B81
:10294000FDF777FD41EC1C0B6348B0EE4F0AF0EE4B
:102950006F0A0421784400F05BF953EC1A2B51EC18
:10296000100BFDF766FD344353EC1C2BFDF7BAFC4E
:1029700041EC1C0B002C4CDD9FED510B51EC180B66
:1029800053EC102BFDF755FD53EC182BFDF751FDC3
:1029900041EC1A0B55B353EC1D2B51EC1B0BFDF7FF
:1029A00048FD41EC1D0B53EC1C2B51EC1A0BFDF7B1
:1029B00099FC53EC192BFDF73CFD53EC1D2BFDF757
:1029C00091FC53EC1A2BFDF731FD53EC182BFDF75E
:1029D0002AFD41EC180B53EC1E2B51EC1B0BFDF7A1
:1029E00028FD53EC182BFDF71EFD69E753EC1C2B5B
:1029F00051EC1A0BFDF776FC53EC192BFDF719FD82
:102A000053EC1A2BFDF712FD53EC182BFDF70EFDBE
:102A100056E735B353EC1D2B51EC1B0BFDF709FDAD
:102A200041EC1A0B53EC1C2B51EC180BFDF7FBFC83
:102A300053EC192BFDF7FDFC53EC1A2BFDF7F3FCBF
:102A400053EC182BFDF7EFFC41EC180B53EC1E2B4D
:102A500051EC1B0BFDF7EDFC53EC182BFDF7E3FCE1
:102A60002EE753EC1C2B51EC180BFDF7DCFC53EC60
:102A7000192BFDF7DEFC53EC182BFDF7D7FC1FE7F5
:102A80000000F07F00000000000000000000504344
:102A9000645F090000000000000000000000F03F3B
:102AA000763C7935EF39EA3D0000E0FE422EE63F04
:102AB000780E000000000000555555555555D53F7E
:102AC000000000000000E03F0000000000000040A7
:102AD00086EBF9FFFA0C0000F00C0000000000008B
:102AE00070B5414A00252DED020B2DED048BDDE97B
:102AF0000404944205DA24F00041914201D809D13E
:102B000040B19DED040BBDEC048B02B0BDE87040FC
:102B100000F012B9B4F5801F26DA08430BD0002C60
:102B200013DA012000F034F9BDEC048B02B0BDE8EB
:102B3000704000F00DB9022000F02AF900F0E4F82E
:102B400051EC100B81F0004146E09FED290B6FF036
:102B5000350553EC102B9DED040B51EC100BFDF7DC
:102B600068FCCDE904010C4605EB2450A0F2FF30CF
:102B7000C10F40F2FF32521A62F31F540844FDF7AE
:102B8000CAFC05949DED040B41EC180B51EC100BA5
:102B900000F016FA9FED181B53EC112BFDF749FCC2
:102BA0009FED170B41EC190B53EC102B51EC180B4C
:102BB000FDF73FFC53EC192BFDF794FB9FED120B37
:102BC00041EC190B53EC102B51EC180BFDF731FCB9
:102BD00053EC192BFDF786FBBDEC048B02B041ECE6
:102BE000100B70BD000000000000F07F000000002E
:102BF00000000000000050430EE526157BCBDB3FB4
:102C0000362BF111F3FE593D00609F501344D33F22
:102C100070B504462DED028B4D1E00EBC500B0EEE5
:102C2000408AF0EE608A90ED000B35F0060017D078
:102C300053EC182B51EC100BFDF7FBFB41EC100B88
:102C40006D1E04EBC50090ED001B51EC100B53EC16
:102C5000112BFDF747FB41EC100B35F00600E7D1D7
:102C6000022D36D0042D1CD0062D1CBFBDEC028BCE
:102C700070BD53EC182B51EC100BFDF7DAFB94ED03
:102C80000A1B53EC112BFDF72DFB53EC182BFDF712
:102C9000D0FB94ED081B53EC112BFDF723FB41EC0B
:102CA000100B53EC182B51EC100BFDF7C2FB94EDFD
:102CB000061B53EC112BFDF715FB53EC182BFDF7FE
:102CC000B8FB94ED040B53EC102BFDF70BFB41EC20
:102CD000100B53EC182B51EC100BFDF7AAFB94EDE5
:102CE000021B53EC112BFDF7FDFA53EC182BFDF7EB
:102CF000A0FB94ED001B53EC112BFDF7F3FABDEC98
:102D0000028B41EC100B70BD9FED070B10B553EC1F
:102D1000102B9FED070B51EC100BFDF701FD41EC63
:102D2000100B10BD000000000000000000000000BB
:102D3000000000000000F03F10B553EC102B51ECE8
:102D4000100BFDF7CFFA41EC100B10BD0000000096
:102D50009FED050B10B553EC102B51EC100BFDF74C
:102D6000DFFC41EC100B10BD000000000000000073
:102D700002E008C8121F08C1002AFAD17047704744
:102D8000002001E001C1121F002AFBD170470000A2
:102D900001490860704700004C0500242DE9F0410E
:102DA00016460F460446002503E03946B047641C2A
:102DB0006D1C20780028F8D12846BDE8F08100007D
:102DC0002DE9F0472DED088B82B005460E46914661
:102DD0009FED3E0AF0EE408A9FED3C0A8DED010A20
:102DE000002440E005EB8408D8F80070384887429A
:102DF00006D19FED360A02B0BDEC088BBDE8F08726
:102E000006EB8408D8F800703148874202D19FED64
:102E10002F0AF0E705EB8400D0ED000A05EB8400F3
:102E200090ED001AB0EE680A00EE810AF0EE408ADA
:102E300005EB840090ED000A06EB8400D0ED000A5B
:102E400070EE600A05EB840090ED000A06EB84004A
:102E500090ED001A30EE411A9DED010A00EE810A54
:102E60008DED010A641C4C45BCD30DF10408D8F863
:102E700000701748874202D19FED140ABBE79DED11
:102E8000010AC8EE800A10EE90AA5046FDF754FBE6
:102E900041EC1B0BB0EE4B0AF0EE6B0AFFF720FE85
:102EA000B0EE40AAF0EE60AA9FED0A0B53EC102B97
:102EB00051EC1A0BFDF7BDFA41EC190BFDF74FFB76
:102EC00008EE100AB0EE480A95E700000000000086
:102ED0000000C07F000000000000244070B50546DF
:102EE0000C46EEB23046FFF701FCD4E903018842FC
:102EF00006D2E0680670E068401CE060284670BDBD
:102F00004FF0FF30FBE7000010B54FF400510348CD
:102F1000FDF7DDF900F004F810BD000050050024B5
:102F200000B585B0FEF780FF4FF48022002101201C
:102F3000FEF702FB04204FF0E021086140044861E5
:102F40001C48006840F001001A4908600846006803
:102F500040F00200086017481030006840F0100090
:102F60001449103108604FF4007000900220019065
:102F700000200290022003900720049069460E482A
:102F8000FDF798FC4FF4806000900720049069469C
:102F90000948FDF78FFC0848006900F48060B0F52F
:102FA000806F02D0012005490860FFF77DFB05B066
:102FB00000BD0000E0440258000002580400002454
:102FC00010B541EC100BFFF7A7FB51EC100B10BD37
:102FD0002DED028B174C184DFDF798FDFFF794FF70
:102FE0001648FFF78FFB16A0FFF78CFB4FF4A0727B
:102FF000294620467DF00FFB21A0FFF783FB4FF40D
:10300000A07229462C48FFF7DBFEB0EE408A2BA0C9
:10301000FFF778FB9FED370AB4EEC08AF1EE10FAA5
:1030200003D235A0FFF76EFB02E03AA0FFF76AFB80
:1030300000BFFEE708000024E425002470360008E5
:1030400043616C6C696E6720746865204649522044
:10305000636F646520696E7374616C6C65640A6982
:103060006E20746865205043524F50206172656134
:103070002076696120534D492E2E2E0A0000000053
:10308000202E2E2E20696620796F7520726561646E
:1030900020746869732C206974206D65616E7320DB
:1030A0004920646964206E6F7420637261736820C4
:1030B0003B2D2920210A0000303100084368656358
:1030C0006B696E672074686520636F6D70757465D9
:1030D0006420726573756C742077697468207468F5
:1030E00065207265666572656E63652E2E2E0A0A0E
:1030F0000000000000000C43202D3E2046495220D5
:1031000054455354204641494C4544202121210A2D
:1031100000000000202D3E204649522054455354C3
:103120002053554343455353202121210A000000D9
:103130000000000080878DBAE95C49BAEDEC4FB918
:103140004A1F8738A9AB083B4AC6713BB6D3CF3A72
:10315000E03B2CBBF5BBF8BB059C43BC57FE0DBC4C
:103160006CC9113C5159303D3A92C73DB037323E9F
:10317000DD49893E1EE2BF3E478AFA3EE6371A3FE6
:103180002AB4343F5FFD4B3F89205F3F86836D3F0C
:1031900027DD773FE2537E3F7E27803F1D1A7E3F2B
:1031A000EED8773FDAFA6C3FC32E5E3F75954B3F02
:1031B0006660353F5E291C3F9453003F1152C43E68
:1031C00092BB843E5C21063E000000805C2106BE6E
:1031D00092BB84BE1152C4BE945300BF5E291CBF73
:1031E000666035BF75954BBFC32E5EBFDAFA6CBF04
:1031F000EED877BFE0607EBFAA4080BFE0607EBFB0
:10320000EED877BFDAFA6CBFC32E5EBF75954BBFA1
:10321000666035BF5E291CBF945300BF1152C4BE07
:1032200092BB84BE5C2106BE000000005C21063E0D
:1032300092BB843E1152C43E9453003F5E291C3F12
:103240006660353F75954B3FC32E5E3FDAFA6C3FA3
:10325000EED8773FE0607E3FAA40803FE0607E3F4F
:10326000EED8773FDAFA6C3FC32E5E3F75954B3F41
:103270006660353F5E291C3F9453003F1152C43EA7
:1032800092BB843E5C21063E000000805C2106BEAD
:1032900092BB84BE1152C4BE945300BF5E291CBFB2
:1032A000666035BF75954BBFC32E5EBFDAFA6CBF43
:1032B000EED877BFE0607EBFAA4080BFE0607EBFEF
:1032C000EED877BFDAFA6CBFC32E5EBF75954BBFE1
:1032D000666035BF5E291CBF945300BF1152C4BE47
:1032E00092BB84BE5C2106BE000000005C21063E4D
:1032F00092BB843E1152C43E9453003F5E291C3F52
:103300006660353F75954B3FC32E5E3FDAFA6C3FE2
:10331000EED8773FE0607E3FAA40803FE0607E3F8E
:10332000EED8773FDAFA6C3FC32E5E3F75954B3F80
:103330006660353F5E291C3F9453003F1152C43EE6
:1033400092BB843E5C21063E000000805C2106BEEC
:1033500092BB84BE1152C4BE945300BF5E291CBFF1
:10336000666035BF75954BBFC32E5EBFDAFA6CBF82
:10337000EED877BFE0607EBFAA4080BFE0607EBF2E
:10338000EED877BFDAFA6CBFC32E5EBF75954BBF20
:10339000666035BF5E291CBF945300BF1152C4BE86
:1033A00092BB84BE5C2106BE000000005C21063E8C
:1033B00092BB843E1152C43E9453003F5E291C3F91
:1033C0006660353F75954B3FC32E5E3FDAFA6C3F22
:1033D000EED8773FE0607E3FAA40803FE0607E3FCE
:1033E000EED8773FDAFA6C3FC32E5E3F75954B3FC0
:1033F0006660353F5E291C3F9453003F1152C43E26
:1034000092BB843E5C21063E000000005C2106BEAB
:1034100092BB84BE1152C4BE945300BF5E291CBF30
:10342000666035BF75954BBFC32E5EBFDAFA6CBFC1
:10343000EED877BFE0607EBFAA4080BFE0607EBF6D
:10344000EED877BFDAFA6CBFC32E5EBF75954BBF5F
:10345000666035BF5E291CBF945300BF1152C4BEC5
:1034600092BB84BE5C2106BE000000005C21063ECB
:1034700092BB843E1152C43E9453003F5E291C3FD0
:103480006660353F75954B3FC32E5E3FDAFA6C3F61
:10349000EED8773FE0607E3FAA40803FE0607E3F0D
:1034A000EED8773FDAFA6C3FC32E5E3F75954B3FFF
:1034B0006660353F5E291C3F9453003F1152C43E65
:1034C00092BB843E5C21063E000000005C2106BEEB
:1034D00092BB84BE1152C4BE945300BF5E291CBF70
:1034E000666035BF75954BBFC32E5EBFDAFA6CBF01
:1034F000EED877BFE0607EBFAA4080BFE0607EBFAD
:10350000EED877BFDAFA6CBFC32E5EBF75954BBF9E
:10351000666035BF5E291CBF945300BF1152C4BE04
:1035200092BB84BE5C2106BE000000805C21063E8A
:1035300092BB843E1152C43E9453003F5E291C3F0F
:103540006660353F75954B3FC32E5E3FDAFA6C3FA0
:10355000EED8773FE0607E3FAA40803FE0607E3F4C
:10356000EED8773FDAFA6C3FC32E5E3F75954B3F3E
:103570006660353F5E291C3F9453003F1152C43EA4
:1035800092BB843E5C21063E000000005C2106BE2A
:1035900092BB84BE1152C4BE945300BF5E291CBFAF
:1035A000666035BF75954BBFC32E5EBFDAFA6CBF40
:1035B000EED877BFE0607EBFAA4080BFE0607EBFEC
:1035C000EED877BFDAFA6CBFC32E5EBF75954BBFDE
:1035D000666035BF5E291CBF945300BF1152C4BE44
:1035E00092BB84BE5C2106BE000000005C21063E4A
:1035F00092BB843E1152C43E9453003F5E291C3F4F
:103600006660353F75954B3FC32E5E3FDAFA6C3FDF
:10361000EED8773FE0607E3FAA40803FE0607E3F8B
:10362000EED8773FDAFA6C3FC32E5E3F75954B3F7D
:1036300004FA97999999D93FAF788E1DC571CC3FFF
:103640009FC678D0099AC33F935555555555E53FC8
:10365000599322942449D23FDE03CB966446C73F58
:1036600044523EDF12F1C23F0000000000000000A3
:1036700048692C2049276D207468652046495220EE
:1036800074657374206170706C69636174696F6EC6
:10369000207573696E6720746865204649522063FF
:1036A0006F646520696E7374616C6C65640A696E21
:1036B0002061207063726F7020617265612076698D
:1036C0006120534D492E2E2E0A000000FC360008C2
:1036D000000000245005000054080008C837000806
:1036E0005005002494250000802D0008C8370008EC
:1036F0000000022400040000802D00089200011048
:103700002DD9AB173F1504C2BD15EF433E00008015
:103710003F09B8D53EF304B53E72ADA03FD7B35DC7
:103720003F5E83EC3EB2E4A83F8D65973F2F3108A2
:103730002110211821202128213021382140214821
:1037400021502158115F12806012BF60123D181283
:10375000BE0F12BF6012BE6012BE3812BF4012BF51
:103760004812BE6012BF5812BF8F310821102118B5
:103770002120212821302138214021482150215861
:103780000161C002FF00C0051C800AFF804005DC0B
:103790008001DBC0300500093D00045D0C05A00977
:1037A0000102030406070809106114101601000243
:1037B000000400060008000A000C00100020004071
:0837C0000080232D4C050000E0
:040000050800028964
:00000001FF
